:100000000C942A000C947E010C947E010C947E01C9
:100010000C947E010C947E010C947E010C947E0164
:100020000C947E010C947E010C947E010C947E0154
:100030000C947E010C947E010C947E010C947E0144
:100040000C947E010C947E010C947E010C947E0134
:100050000C947E0111241FBECFE5D8E0DEBFCDBFDA
:0C0060000E9478010C943400F894FFCF4B
:10006C00813001F130F08230B1F1833009F44CC0B1
:10007C000895413059F42AB381E090E002C0880F12
:10008C00991F6A95E2F7822B8ABB08952AB381E007
:10009C0090E002C0880F991F6A95E2F78095822341
:1000AC008ABB0895413059F427B381E090E002C037
:1000BC00880F991F6A95E2F7822B87BB089527B3A7
:1000CC0081E090E002C0880F991F6A95E2F7809555
:1000DC00822387BB0895413059F424B381E090E02A
:1000EC0002C0880F991F6A95E2F7822B84BB089592
:1000FC0024B381E090E002C0880F991F6A95E2F763
:10010C008095822384BB0895413059F421B381E05A
:10011C0090E002C0880F991F6A95E2F7822B81BB91
:10012C00089521B381E090E002C0880F991F6A9571
:0A013C00E2F78095822381BB08954D
:10014600813001F130F08230B1F1833009F44CC0D6
:100156000895423059F42BB381E090E002C0880F35
:10016600991F6A95E2F7822B8BBB08952BB381E02A
:1001760090E002C0880F991F6A95E2F78095822366
:100186008BBB0895423059F428B381E090E002C059
:10019600880F991F6A95E2F7822B88BB089528B3CA
:1001A60081E090E002C0880F991F6A95E2F780957A
:1001B600822388BB0895423059F425B381E090E04C
:1001C60002C0880F991F6A95E2F7822B85BB0895B6
:1001D60025B381E090E002C0880F991F6A95E2F787
:1001E6008095822385BB0895423059F422B381E07D
:1001F60090E002C0880F991F6A95E2F7822B82BBB6
:10020600089522B381E090E002C0880F991F6A9595
:0A021600E2F78095822382BB089571
:1002200041E060E081E00E94360041E061E081E071
:100230000E94360041E062E081E00E9436002FEF2C
:1002400083ED90E3215080409040E1F700C0000032
:1002500088E30E9458018CE00E94580181E00E94CE
:10026000580182E00E94580186E00E9458010895DA
:10027000CF93C82F42E062E081E00E94A300CBBB95
:1002800042E060E081E00E94A3008FE99FE00197D7
:10029000F1F700C0000043E060E081E00E94A300AD
:1002A0008FE19EE40197F1F700C00000CF9108951F
:1002B000CF93C82F43E062E081E00E94A300CBBB54
:1002C00042E060E081E00E94A3008FE99FE0019797
:1002D000F1F700C0000043E060E081E00E94A3006D
:1002E0008FE19EE40197F1F700C00000CF910895DF
:0C02F0000E94100181E60E943801FCCF42
:0402FC000C9400005E
:00000001FF
